{
  "contractName": "MedicalRecords",
  "abi": [
    {
      "inputs": [],
      "stateMutability": "nonpayable",
      "type": "constructor"
    },
    {
      "anonymous": false,
      "inputs": [
        {
          "indexed": true,
          "internalType": "bytes32",
          "name": "requestId",
          "type": "bytes32"
        },
        {
          "indexed": true,
          "internalType": "address",
          "name": "doctor",
          "type": "address"
        },
        {
          "indexed": true,
          "internalType": "address",
          "name": "patient",
          "type": "address"
        }
      ],
      "name": "AccessApproved",
      "type": "event"
    },
    {
      "anonymous": false,
      "inputs": [
        {
          "indexed": true,
          "internalType": "bytes32",
          "name": "requestId",
          "type": "bytes32"
        },
        {
          "indexed": true,
          "internalType": "address",
          "name": "doctor",
          "type": "address"
        },
        {
          "indexed": true,
          "internalType": "address",
          "name": "patient",
          "type": "address"
        }
      ],
      "name": "AccessDenied",
      "type": "event"
    },
    {
      "anonymous": false,
      "inputs": [
        {
          "indexed": true,
          "internalType": "bytes32",
          "name": "requestId",
          "type": "bytes32"
        },
        {
          "indexed": true,
          "internalType": "address",
          "name": "doctor",
          "type": "address"
        },
        {
          "indexed": true,
          "internalType": "address",
          "name": "patient",
          "type": "address"
        },
        {
          "indexed": false,
          "internalType": "string",
          "name": "reason",
          "type": "string"
        }
      ],
      "name": "AccessRequested",
      "type": "event"
    },
    {
      "anonymous": false,
      "inputs": [
        {
          "indexed": true,
          "internalType": "address",
          "name": "doctor",
          "type": "address"
        },
        {
          "indexed": true,
          "internalType": "address",
          "name": "patient",
          "type": "address"
        }
      ],
      "name": "AccessRevoked",
      "type": "event"
    },
    {
      "anonymous": false,
      "inputs": [
        {
          "indexed": true,
          "internalType": "address",
          "name": "doctor",
          "type": "address"
        },
        {
          "indexed": false,
          "internalType": "string",
          "name": "name",
          "type": "string"
        },
        {
          "indexed": false,
          "internalType": "string",
          "name": "license",
          "type": "string"
        }
      ],
      "name": "DoctorRegistered",
      "type": "event"
    },
    {
      "anonymous": false,
      "inputs": [
        {
          "indexed": true,
          "internalType": "string",
          "name": "ipfsHash",
          "type": "string"
        },
        {
          "indexed": true,
          "internalType": "address",
          "name": "accessor",
          "type": "address"
        }
      ],
      "name": "DocumentAccessed",
      "type": "event"
    },
    {
      "anonymous": false,
      "inputs": [
        {
          "indexed": true,
          "internalType": "string",
          "name": "ipfsHash",
          "type": "string"
        },
        {
          "indexed": true,
          "internalType": "address",
          "name": "patient",
          "type": "address"
        },
        {
          "indexed": true,
          "internalType": "address",
          "name": "doctor",
          "type": "address"
        },
        {
          "indexed": false,
          "internalType": "string",
          "name": "documentType",
          "type": "string"
        }
      ],
      "name": "DocumentUploaded",
      "type": "event"
    },
    {
      "anonymous": false,
      "inputs": [
        {
          "indexed": true,
          "internalType": "address",
          "name": "patient",
          "type": "address"
        },
        {
          "indexed": false,
          "internalType": "string",
          "name": "name",
          "type": "string"
        }
      ],
      "name": "PatientRegistered",
      "type": "event"
    },
    {
      "anonymous": false,
      "inputs": [
        {
          "indexed": true,
          "internalType": "address",
          "name": "grantee",
          "type": "address"
        },
        {
          "indexed": true,
          "internalType": "address",
          "name": "grantor",
          "type": "address"
        }
      ],
      "name": "PermissionGranted",
      "type": "event"
    },
    {
      "anonymous": false,
      "inputs": [
        {
          "indexed": true,
          "internalType": "address",
          "name": "revokee",
          "type": "address"
        },
        {
          "indexed": true,
          "internalType": "address",
          "name": "revoker",
          "type": "address"
        }
      ],
      "name": "PermissionRevoked",
      "type": "event"
    },
    {
      "inputs": [
        {
          "internalType": "bytes32",
          "name": "",
          "type": "bytes32"
        }
      ],
      "name": "accessRequests",
      "outputs": [
        {
          "internalType": "address",
          "name": "doctor",
          "type": "address"
        },
        {
          "internalType": "address",
          "name": "patient",
          "type": "address"
        },
        {
          "internalType": "string",
          "name": "reason",
          "type": "string"
        },
        {
          "internalType": "uint256",
          "name": "requestTime",
          "type": "uint256"
        },
        {
          "internalType": "bool",
          "name": "isPending",
          "type": "bool"
        }
      ],
      "stateMutability": "view",
      "type": "function"
    },
    {
      "inputs": [
        {
          "internalType": "address",
          "name": "",
          "type": "address"
        }
      ],
      "name": "authorizedAddresses",
      "outputs": [
        {
          "internalType": "bool",
          "name": "",
          "type": "bool"
        }
      ],
      "stateMutability": "view",
      "type": "function"
    },
    {
      "inputs": [
        {
          "internalType": "address",
          "name": "",
          "type": "address"
        },
        {
          "internalType": "address",
          "name": "",
          "type": "address"
        }
      ],
      "name": "doctorAccessRequests",
      "outputs": [
        {
          "internalType": "bool",
          "name": "",
          "type": "bool"
        }
      ],
      "stateMutability": "view",
      "type": "function"
    },
    {
      "inputs": [
        {
          "internalType": "address",
          "name": "",
          "type": "address"
        },
        {
          "internalType": "uint256",
          "name": "",
          "type": "uint256"
        }
      ],
      "name": "doctorAccessiblePatients",
      "outputs": [
        {
          "internalType": "address",
          "name": "",
          "type": "address"
        }
      ],
      "stateMutability": "view",
      "type": "function"
    },
    {
      "inputs": [
        {
          "internalType": "address",
          "name": "",
          "type": "address"
        },
        {
          "internalType": "uint256",
          "name": "",
          "type": "uint256"
        }
      ],
      "name": "doctorDocuments",
      "outputs": [
        {
          "internalType": "string",
          "name": "",
          "type": "string"
        }
      ],
      "stateMutability": "view",
      "type": "function"
    },
    {
      "inputs": [
        {
          "internalType": "address",
          "name": "",
          "type": "address"
        },
        {
          "internalType": "uint256",
          "name": "",
          "type": "uint256"
        }
      ],
      "name": "doctorSentRequests",
      "outputs": [
        {
          "internalType": "bytes32",
          "name": "",
          "type": "bytes32"
        }
      ],
      "stateMutability": "view",
      "type": "function"
    },
    {
      "inputs": [
        {
          "internalType": "address",
          "name": "",
          "type": "address"
        }
      ],
      "name": "doctors",
      "outputs": [
        {
          "internalType": "string",
          "name": "name",
          "type": "string"
        },
        {
          "internalType": "string",
          "name": "license",
          "type": "string"
        },
        {
          "internalType": "string",
          "name": "specialization",
          "type": "string"
        },
        {
          "internalType": "bool",
          "name": "isVerified",
          "type": "bool"
        },
        {
          "internalType": "uint256",
          "name": "documentCount",
          "type": "uint256"
        }
      ],
      "stateMutability": "view",
      "type": "function"
    },
    {
      "inputs": [
        {
          "internalType": "string",
          "name": "",
          "type": "string"
        }
      ],
      "name": "documents",
      "outputs": [
        {
          "internalType": "string",
          "name": "ipfsHash",
          "type": "string"
        },
        {
          "internalType": "address",
          "name": "patientAddress",
          "type": "address"
        },
        {
          "internalType": "address",
          "name": "doctorAddress",
          "type": "address"
        },
        {
          "internalType": "uint256",
          "name": "timestamp",
          "type": "uint256"
        },
        {
          "internalType": "string",
          "name": "documentType",
          "type": "string"
        },
        {
          "internalType": "bool",
          "name": "isActive",
          "type": "bool"
        },
        {
          "internalType": "string",
          "name": "metadata",
          "type": "string"
        }
      ],
      "stateMutability": "view",
      "type": "function"
    },
    {
      "inputs": [],
      "name": "owner",
      "outputs": [
        {
          "internalType": "address",
          "name": "",
          "type": "address"
        }
      ],
      "stateMutability": "view",
      "type": "function"
    },
    {
      "inputs": [
        {
          "internalType": "address",
          "name": "",
          "type": "address"
        },
        {
          "internalType": "uint256",
          "name": "",
          "type": "uint256"
        }
      ],
      "name": "patientAuthorizedDoctors",
      "outputs": [
        {
          "internalType": "address",
          "name": "",
          "type": "address"
        }
      ],
      "stateMutability": "view",
      "type": "function"
    },
    {
      "inputs": [
        {
          "internalType": "address",
          "name": "",
          "type": "address"
        },
        {
          "internalType": "address",
          "name": "",
          "type": "address"
        }
      ],
      "name": "patientDoctorAccess",
      "outputs": [
        {
          "internalType": "bool",
          "name": "",
          "type": "bool"
        }
      ],
      "stateMutability": "view",
      "type": "function"
    },
    {
      "inputs": [
        {
          "internalType": "address",
          "name": "",
          "type": "address"
        },
        {
          "internalType": "uint256",
          "name": "",
          "type": "uint256"
        }
      ],
      "name": "patientDocuments",
      "outputs": [
        {
          "internalType": "string",
          "name": "",
          "type": "string"
        }
      ],
      "stateMutability": "view",
      "type": "function"
    },
    {
      "inputs": [
        {
          "internalType": "address",
          "name": "",
          "type": "address"
        },
        {
          "internalType": "uint256",
          "name": "",
          "type": "uint256"
        }
      ],
      "name": "patientPendingRequests",
      "outputs": [
        {
          "internalType": "bytes32",
          "name": "",
          "type": "bytes32"
        }
      ],
      "stateMutability": "view",
      "type": "function"
    },
    {
      "inputs": [
        {
          "internalType": "address",
          "name": "",
          "type": "address"
        }
      ],
      "name": "patients",
      "outputs": [
        {
          "internalType": "string",
          "name": "name",
          "type": "string"
        },
        {
          "internalType": "string",
          "name": "email",
          "type": "string"
        },
        {
          "internalType": "uint256",
          "name": "dateOfBirth",
          "type": "uint256"
        },
        {
          "internalType": "bool",
          "name": "isRegistered",
          "type": "bool"
        },
        {
          "internalType": "uint256",
          "name": "documentCount",
          "type": "uint256"
        }
      ],
      "stateMutability": "view",
      "type": "function"
    },
    {
      "inputs": [],
      "name": "totalDoctors",
      "outputs": [
        {
          "internalType": "uint256",
          "name": "",
          "type": "uint256"
        }
      ],
      "stateMutability": "view",
      "type": "function"
    },
    {
      "inputs": [],
      "name": "totalDocuments",
      "outputs": [
        {
          "internalType": "uint256",
          "name": "",
          "type": "uint256"
        }
      ],
      "stateMutability": "view",
      "type": "function"
    },
    {
      "inputs": [],
      "name": "totalPatients",
      "outputs": [
        {
          "internalType": "uint256",
          "name": "",
          "type": "uint256"
        }
      ],
      "stateMutability": "view",
      "type": "function"
    },
    {
      "inputs": [
        {
          "internalType": "string",
          "name": "_name",
          "type": "string"
        },
        {
          "internalType": "string",
          "name": "_email",
          "type": "string"
        },
        {
          "internalType": "uint256",
          "name": "_dateOfBirth",
          "type": "uint256"
        }
      ],
      "name": "registerPatient",
      "outputs": [],
      "stateMutability": "nonpayable",
      "type": "function"
    },
    {
      "inputs": [
        {
          "internalType": "string",
          "name": "_name",
          "type": "string"
        },
        {
          "internalType": "string",
          "name": "_license",
          "type": "string"
        },
        {
          "internalType": "string",
          "name": "_specialization",
          "type": "string"
        }
      ],
      "name": "registerDoctor",
      "outputs": [],
      "stateMutability": "nonpayable",
      "type": "function"
    },
    {
      "inputs": [
        {
          "internalType": "string",
          "name": "_ipfsHash",
          "type": "string"
        },
        {
          "internalType": "address",
          "name": "_patientAddress",
          "type": "address"
        },
        {
          "internalType": "string",
          "name": "_documentType",
          "type": "string"
        },
        {
          "internalType": "string",
          "name": "_metadata",
          "type": "string"
        }
      ],
      "name": "uploadDocument",
      "outputs": [],
      "stateMutability": "nonpayable",
      "type": "function"
    },
    {
      "inputs": [
        {
          "internalType": "string",
          "name": "_ipfsHash",
          "type": "string"
        }
      ],
      "name": "getDocument",
      "outputs": [
        {
          "internalType": "string",
          "name": "ipfsHash",
          "type": "string"
        },
        {
          "internalType": "address",
          "name": "patientAddress",
          "type": "address"
        },
        {
          "internalType": "address",
          "name": "doctorAddress",
          "type": "address"
        },
        {
          "internalType": "uint256",
          "name": "timestamp",
          "type": "uint256"
        },
        {
          "internalType": "string",
          "name": "documentType",
          "type": "string"
        },
        {
          "internalType": "bool",
          "name": "isActive",
          "type": "bool"
        },
        {
          "internalType": "string",
          "name": "metadata",
          "type": "string"
        }
      ],
      "stateMutability": "view",
      "type": "function"
    },
    {
      "inputs": [
        {
          "internalType": "address",
          "name": "_patientAddress",
          "type": "address"
        }
      ],
      "name": "getPatientDocuments",
      "outputs": [
        {
          "internalType": "string[]",
          "name": "",
          "type": "string[]"
        }
      ],
      "stateMutability": "view",
      "type": "function"
    },
    {
      "inputs": [
        {
          "internalType": "address",
          "name": "_doctorAddress",
          "type": "address"
        }
      ],
      "name": "getDoctorDocuments",
      "outputs": [
        {
          "internalType": "string[]",
          "name": "",
          "type": "string[]"
        }
      ],
      "stateMutability": "view",
      "type": "function"
    },
    {
      "inputs": [
        {
          "internalType": "address",
          "name": "_grantee",
          "type": "address"
        }
      ],
      "name": "grantPermission",
      "outputs": [],
      "stateMutability": "nonpayable",
      "type": "function"
    },
    {
      "inputs": [
        {
          "internalType": "address",
          "name": "_revokee",
          "type": "address"
        }
      ],
      "name": "revokePermission",
      "outputs": [],
      "stateMutability": "nonpayable",
      "type": "function"
    },
    {
      "inputs": [
        {
          "internalType": "string",
          "name": "_ipfsHash",
          "type": "string"
        }
      ],
      "name": "deactivateDocument",
      "outputs": [],
      "stateMutability": "nonpayable",
      "type": "function"
    },
    {
      "inputs": [
        {
          "internalType": "address",
          "name": "_patientAddress",
          "type": "address"
        }
      ],
      "name": "getPatientInfo",
      "outputs": [
        {
          "internalType": "string",
          "name": "name",
          "type": "string"
        },
        {
          "internalType": "string",
          "name": "email",
          "type": "string"
        },
        {
          "internalType": "uint256",
          "name": "dateOfBirth",
          "type": "uint256"
        },
        {
          "internalType": "bool",
          "name": "isRegistered",
          "type": "bool"
        },
        {
          "internalType": "uint256",
          "name": "documentCount",
          "type": "uint256"
        }
      ],
      "stateMutability": "view",
      "type": "function"
    },
    {
      "inputs": [
        {
          "internalType": "address",
          "name": "_doctorAddress",
          "type": "address"
        }
      ],
      "name": "getDoctorInfo",
      "outputs": [
        {
          "internalType": "string",
          "name": "name",
          "type": "string"
        },
        {
          "internalType": "string",
          "name": "license",
          "type": "string"
        },
        {
          "internalType": "string",
          "name": "specialization",
          "type": "string"
        },
        {
          "internalType": "bool",
          "name": "isVerified",
          "type": "bool"
        },
        {
          "internalType": "uint256",
          "name": "documentCount",
          "type": "uint256"
        }
      ],
      "stateMutability": "view",
      "type": "function"
    },
    {
      "inputs": [],
      "name": "getContractStats",
      "outputs": [
        {
          "internalType": "uint256",
          "name": "_totalDocuments",
          "type": "uint256"
        },
        {
          "internalType": "uint256",
          "name": "_totalPatients",
          "type": "uint256"
        },
        {
          "internalType": "uint256",
          "name": "_totalDoctors",
          "type": "uint256"
        }
      ],
      "stateMutability": "view",
      "type": "function"
    },
    {
      "inputs": [
        {
          "internalType": "address",
          "name": "_patient",
          "type": "address"
        },
        {
          "internalType": "string",
          "name": "_reason",
          "type": "string"
        }
      ],
      "name": "requestPatientAccess",
      "outputs": [],
      "stateMutability": "nonpayable",
      "type": "function"
    },
    {
      "inputs": [
        {
          "internalType": "bytes32",
          "name": "_requestId",
          "type": "bytes32"
        }
      ],
      "name": "approveAccessRequest",
      "outputs": [],
      "stateMutability": "nonpayable",
      "type": "function"
    },
    {
      "inputs": [
        {
          "internalType": "bytes32",
          "name": "_requestId",
          "type": "bytes32"
        }
      ],
      "name": "denyAccessRequest",
      "outputs": [],
      "stateMutability": "nonpayable",
      "type": "function"
    },
    {
      "inputs": [
        {
          "internalType": "address",
          "name": "_doctor",
          "type": "address"
        }
      ],
      "name": "revokePatientAccess",
      "outputs": [],
      "stateMutability": "nonpayable",
      "type": "function"
    },
    {
      "inputs": [
        {
          "internalType": "address",
          "name": "_doctor",
          "type": "address"
        },
        {
          "internalType": "address",
          "name": "_patient",
          "type": "address"
        }
      ],
      "name": "checkDoctorAccess",
      "outputs": [
        {
          "internalType": "bool",
          "name": "",
          "type": "bool"
        }
      ],
      "stateMutability": "view",
      "type": "function"
    },
    {
      "inputs": [
        {
          "internalType": "address",
          "name": "_patient",
          "type": "address"
        }
      ],
      "name": "getPatientAuthorizedDoctors",
      "outputs": [
        {
          "internalType": "address[]",
          "name": "",
          "type": "address[]"
        }
      ],
      "stateMutability": "view",
      "type": "function"
    },
    {
      "inputs": [
        {
          "internalType": "address",
          "name": "_doctor",
          "type": "address"
        }
      ],
      "name": "getDoctorAccessiblePatients",
      "outputs": [
        {
          "internalType": "address[]",
          "name": "",
          "type": "address[]"
        }
      ],
      "stateMutability": "view",
      "type": "function"
    },
    {
      "inputs": [
        {
          "internalType": "address",
          "name": "_patient",
          "type": "address"
        }
      ],
      "name": "getPatientPendingRequests",
      "outputs": [
        {
          "internalType": "bytes32[]",
          "name": "",
          "type": "bytes32[]"
        }
      ],
      "stateMutability": "view",
      "type": "function"
    },
    {
      "inputs": [
        {
          "internalType": "address",
          "name": "_doctor",
          "type": "address"
        }
      ],
      "name": "getDoctorSentRequests",
      "outputs": [
        {
          "internalType": "bytes32[]",
          "name": "",
          "type": "bytes32[]"
        }
      ],
      "stateMutability": "view",
      "type": "function"
    },
    {
      "inputs": [
        {
          "internalType": "bytes32",
          "name": "_requestId",
          "type": "bytes32"
        }
      ],
      "name": "getAccessRequest",
      "outputs": [
        {
          "internalType": "address",
          "name": "doctor",
          "type": "address"
        },
        {
          "internalType": "address",
          "name": "patient",
          "type": "address"
        },
        {
          "internalType": "string",
          "name": "reason",
          "type": "string"
        },
        {
          "internalType": "uint256",
          "name": "requestTime",
          "type": "uint256"
        },
        {
          "internalType": "bool",
          "name": "isPending",
          "type": "bool"
        }
      ],
      "stateMutability": "view",
      "type": "function"
    },
    {
      "inputs": [],
      "name": "emergencyStop",
      "outputs": [],
      "stateMutability": "nonpayable",
      "type": "function"
    }
  ],
  "bytecode": "0x608060405234801561001057600080fd5b5060008054600160a060020a0319163317815560018190556002819055600355613edd8061003f6000396000f3fe608060405234801561001057600080fd5b5060043610610265576000357c0100000000000000000000000000000000000000000000000000000000900480637961489511610158578063b3dd697b116100d5578063dfe6b5d611610099578063dfe6b5d6146105c7578063efc8005c146105eb578063f121a939146105fe578063f19e207e14610611578063f29c02941461063457600080fd5b8063b3dd697b14610565578063b42e7b2314610578578063c79fdc9414610598578063d33209c3146105ab578063deb5ef09146105be57600080fd5b806398967c651161011c57806398967c6514610506578063a3bf5b9a14610519578063a9583c221461052c578063b0c5d21d1461053f578063b2d566c11461055257600080fd5b806379614895146104875780637ccb6a641461049a57806382d5d42b146104c05780638da5cb5b146104d35780638f85b98a146104e657600080fd5b80634b426178116101e657806365b44d7e116101aa57806365b44d7e146104065780636f12fc351461040f578063721e8f6a146104335780637506bdca14610446578063761ab9fc1461045957600080fd5b80634b426178146103af57806350c7a912146103c2578063553181ec146103d557806358d63346146103de57806363a599a4146103fe57600080fd5b80632931a9101161022d5780632931a910146103065780632d8e32781461031957806343d251151461032c57806344d2b4e71461034d5780634ab47f2d1461037157600080fd5b80630750bd551461026a5780630760966e1461029a5780630869cfbc146102ba5780630ade3ecb146102de578063108f17f3146102f3575b600080fd5b61027d61027836600461345c565b610647565b604051600160a060020a0390911681526020015b60405180910390f35b6102ad6102a8366004613486565b61067f565b60405161029191906134a8565b6102cd6102c8366004613486565b610774565b604051610291959493929190613545565b6102f16102ec366004613588565b6108b8565b005b6102ad610301366004613486565b610a16565b6102f1610314366004613647565b610ad1565b6102f1610327366004613486565b610c36565b61033f61033a36600461345c565b610ce4565b604051908152602001610291565b61036061035b366004613588565b610d15565b604051610291959493929190613684565b61039f61037f3660046136c9565b600b60209081526000928352604080842090915290825290205460ff1681565b6040519015158152602001610291565b6102cd6103bd366004613486565b610ddd565b6102f16103d03660046136fc565b611058565b61033f60015481565b6103f16103ec366004613486565b611257565b6040516102919190613784565b6102f1611307565b61033f60035481565b61042261041d366004613486565b61138c565b6040516102919594939291906137bc565b61033f61044136600461345c565b6115da565b61027d61045436600461345c565b6115f6565b61039f6104673660046136c9565b600a60209081526000928352604080842090915290825290205460ff1681565b6102f1610495366004613588565b611612565b6104ad6104a8366004613647565b611892565b604051610291979695949392919061380a565b6103f16104ce366004613486565b611cae565b60005461027d90600160a060020a031681565b6104f96104f4366004613486565b611d8e565b6040516102919190613877565b6102f16105143660046138d8565b611f1a565b6102f1610527366004613486565b6122df565b61042261053a366004613486565b61238a565b6102f161054d366004613971565b612554565b61039f6105603660046136c9565b612892565b6104ad610573366004613647565b6128c2565b61058b61058636600461345c565b612ab9565b60405161029191906139bf565b6102f16105a63660046139d2565b612b72565b6102f16105b9366004613486565b612d59565b61033f60025481565b60015460025460035460408051938452602084019290925290820152606001610291565b6103606105f9366004613588565b612f6b565b6104f961060c366004613486565b613142565b61039f61061f366004613486565b60096020526000908152604090205460ff1681565b61058b61064236600461345c565b613309565b600c602052816000526040600020818154811061066357600080fd5b600091825260209091200154600160a060020a03169150829050565b60608133600160a060020a03821614806106bc5750600160a060020a0381166000908152600a6020908152604080832033845290915290205460ff165b806106d657503360009081526009602052604090205460ff165b6106fe5760405160e560020a62461bcd0281526004016106f590613a3f565b60405180910390fd5b600160a060020a0383166000908152600c60209081526040918290208054835181840281018401909452808452909183018282801561076657602002820191906000526020600020905b8154600160a060020a03168152600190910190602001808311610748575b505050505091505b50919050565b60046020526000908152604090208054819061078f90613a9c565b80601f01602080910402602001604051908101604052809291908181526020018280546107bb90613a9c565b80156108085780601f106107dd57610100808354040283529160200191610808565b820191906000526020600020905b8154815290600101906020018083116107eb57829003601f168201915b50505050509080600101805461081d90613a9c565b80601f016020809104026020016040519081016040528092919081815260200182805461084990613a9c565b80156108965780601f1061086b57610100808354040283529160200191610896565b820191906000526020600020905b81548152906001019060200180831161087957829003601f168201915b50505050600283015460038401546004909401549293909260ff909116915085565b3360009081526004602052604090206003015460ff166108ed5760405160e560020a62461bcd0281526004016106f590613ad3565b6000818152600e60205260409020600481015460ff166109225760405160e560020a62461bcd0281526004016106f590613b30565b6001810154600160a060020a031633146109a75760405160e560020a62461bcd02815260206004820152602860248201527f4f6e6c792070617469656e742063616e2064656e79207468656972206f776e2060448201527f726571756573747300000000000000000000000000000000000000000000000060648201526084016106f5565b8054600160a060020a039081166000908152600b60209081526040808320338085529252808320805460ff199081169091556004860180549091169055845490519193169185917f4a2df28f02fe9f71f1517dc21bcea2e0c63504a0710af702c03e4f7f4a39a82f9190a45050565b606033600160a060020a0383161480610a3e57503360009081526009602052604090205460ff165b610a5d5760405160e560020a62461bcd0281526004016106f590613b8d565b600160a060020a0382166000908152600d602090815260409182902080548351818402810184019094528084529091830182828015610ac557602002820191906000526020600020905b8154600160a060020a03168152600190910190602001808311610aa7575b50505050509050919050565b806000600682604051610ae49190613bea565b9081526040519081900360200190208054610afe90613a9c565b905011610b505760405160e560020a62461bcd02815260206004820152601760248201527f446f63756d656e7420646f6573206e6f7420657869737400000000000000000060448201526064016106f5565b6000600683604051610b629190613bea565b908152604051908190036020019020600181015490915033600160a060020a039091161480610b9d57506002810154600160a060020a031633145b80610bb25750600054600160a060020a031633145b610c275760405160e560020a62461bcd02815260206004820152602a60248201527f4e6f7420617574686f72697a656420746f20646561637469766174652074686960448201527f7320646f63756d656e740000000000000000000000000000000000000000000060648201526084016106f5565b600501805460ff191690555050565b3360009081526004602052604090206003015460ff16610c6b5760405160e560020a62461bcd0281526004016106f590613ad3565b80600160a060020a038116610c955760405160e560020a62461bcd0281526004016106f590613c06565b600160a060020a038216600081815260096020526040808220805460ff19166001179055513392917f0ceda602a8e00ef76afe24614343eb6c034877c816b6184d641d2d8b713a0fc691a35050565b60106020528160005260406000208181548110610d0057600080fd5b90600052602060002001600091509150505481565b600e60205260009081526040902080546001820154600283018054600160a060020a03938416949290931692610d4a90613a9c565b80601f0160208091040260200160405190810160405280929190818152602001828054610d7690613a9c565b8015610dc35780601f10610d9857610100808354040283529160200191610dc3565b820191906000526020600020905b815481529060010190602001808311610da657829003601f168201915b50505050600383015460049093015491929160ff16905085565b6060806000808085600160a060020a038116610e0e5760405160e560020a62461bcd0281526004016106f590613c06565b33600160a060020a0388161480610e3457503360009081526009602052604090205460ff165b80610e495750600054600160a060020a031633145b610ebe5760405160e560020a62461bcd02815260206004820152602360248201527f4e6f7420617574686f72697a656420746f20766965772070617469656e74206960448201527f6e666f000000000000000000000000000000000000000000000000000000000060648201526084016106f5565b600160a060020a038716600090815260046020526040808220815160a08101909252805482908290610eef90613a9c565b80601f0160208091040260200160405190810160405280929190818152602001828054610f1b90613a9c565b8015610f685780601f10610f3d57610100808354040283529160200191610f68565b820191906000526020600020905b815481529060010190602001808311610f4b57829003601f168201915b50505050508152602001600182018054610f8190613a9c565b80601f0160208091040260200160405190810160405280929190818152602001828054610fad90613a9c565b8015610ffa5780601f10610fcf57610100808354040283529160200191610ffa565b820191906000526020600020905b815481529060010190602001808311610fdd57829003601f168201915b50505091835250506002820154602080830191909152600383015460ff1615156040808401919091526004909301546060928301528351908401519284015191840151608090940151909c929b509099509197509095509350505050565b3360009081526005602052604090206003015460ff16156110be5760405160e560020a62461bcd02815260206004820152601960248201527f446f63746f7220616c726561647920726567697374657265640000000000000060448201526064016106f5565b60008351116111125760405160e560020a62461bcd02815260206004820152601460248201527f4e616d652063616e6e6f7420626520656d70747900000000000000000000000060448201526064016106f5565b60008251116111665760405160e560020a62461bcd02815260206004820152601760248201527f4c6963656e73652063616e6e6f7420626520656d70747900000000000000000060448201526064016106f5565b6040805160a081018252848152602080820185905281830184905260016060830152600060808301819052338152600590915291909120815181906111ab9082613c8b565b50602082015160018201906111c09082613c8b565b50604082015160028201906111d59082613c8b565b5060608201516003828101805460ff191692151592909217909155608090920151600490910155805490600061120a83613d6a565b919050555033600160a060020a03167fbc3a5b2aeb1bc52e3d56d3fd3423dd66cea5ecff8ae1f3bd0d75a0e608da7b85848460405161124a929190613d83565b60405180910390a2505050565b606033600160a060020a038316148061127f57503360009081526009602052604090205460ff165b61129e5760405160e560020a62461bcd0281526004016106f590613b8d565b600160a060020a03821660009081526010602090815260409182902080548351818402810184019094528084529091830182828015610ac557602002820191906000526020600020905b8154815260200190600101908083116112e85750505050509050919050565b600054600160a060020a0316331461138a5760405160e560020a62461bcd02815260206004820152602160248201527f4f6e6c79206f776e65722063616e2063616c6c20746869732066756e6374696f60448201527f6e0000000000000000000000000000000000000000000000000000000000000060648201526084016106f5565b565b6060808060008085600160a060020a0381166113bd5760405160e560020a62461bcd0281526004016106f590613c06565b600160a060020a038716600090815260056020526040808220815160a081019092528054829082906113ee90613a9c565b80601f016020809104026020016040519081016040528092919081815260200182805461141a90613a9c565b80156114675780601f1061143c57610100808354040283529160200191611467565b820191906000526020600020905b81548152906001019060200180831161144a57829003601f168201915b5050505050815260200160018201805461148090613a9c565b80601f01602080910402602001604051908101604052809291908181526020018280546114ac90613a9c565b80156114f95780601f106114ce576101008083540402835291602001916114f9565b820191906000526020600020905b8154815290600101906020018083116114dc57829003601f168201915b5050505050815260200160028201805461151290613a9c565b80601f016020809104026020016040519081016040528092919081815260200182805461153e90613a9c565b801561158b5780601f106115605761010080835404028352916020019161158b565b820191906000526020600020905b81548152906001019060200180831161156e57829003601f168201915b5050509183525050600382015460ff161515602080830191909152600490920154604091820152825191830151908301516060840151608090940151929c919b50995091975095509350505050565b600f6020528160005260406000208181548110610d0057600080fd5b600d602052816000526040600020818154811061066357600080fd5b3360009081526004602052604090206003015460ff166116475760405160e560020a62461bcd0281526004016106f590613ad3565b6000818152600e60205260409020600481015460ff1661167c5760405160e560020a62461bcd0281526004016106f590613b30565b6001810154600160a060020a031633146117015760405160e560020a62461bcd02815260206004820152602b60248201527f4f6e6c792070617469656e742063616e20617070726f7665207468656972206f60448201527f776e20726571756573747300000000000000000000000000000000000000000060648201526084016106f5565b8054600160a060020a031660009081526005602052604090206003015460ff166117705760405160e560020a62461bcd02815260206004820152601360248201527f446f63746f72206e6f742076657269666965640000000000000000000000000060448201526064016106f5565b336000818152600a602090815260408083208554600160a060020a0390811685529083528184208054600160ff199182168117909255875483168652600b855283862087875285528386208054821690556004880180549091169055600c8452828520875481548084018355918752858720909101805491841673ffffffffffffffffffffffffffffffffffffffff19928316179055875483168652600d855283862080549283018155865293852001805490931685179092558454905191169185917f6409a3eeff549706e5e3498ddb0a39eacde31aadebaf3f6799682c82a58d807e9190a480546040513391600160a060020a0316907f0ceda602a8e00ef76afe24614343eb6c034877c816b6184d641d2d8b713a0fc690600090a35050565b606060008060006060600060608760006006826040516118b29190613bea565b90815260405190819003602001902080546118cc90613a9c565b90501161191e5760405160e560020a62461bcd02815260206004820152601760248201527f446f63756d656e7420646f6573206e6f7420657869737400000000000000000060448201526064016106f5565b8860006006826040516119319190613bea565b908152604051908190036020019020600181015490915033600160a060020a0390911614806119a457503360009081526005602052604090206003015460ff1680156119a457506001810154600160a060020a03166000908152600a6020908152604080832033845290915290205460ff165b806119bb57506002810154600160a060020a031633145b806119d557503360009081526009602052604090205460ff165b611a4a5760405160e560020a62461bcd02815260206004820152603260248201527f4163636573732064656e6965643a204e6f207065726d697373696f6e20746f2060448201527f76696577207468697320646f63756d656e74000000000000000000000000000060648201526084016106f5565b600060068c604051611a5c9190613bea565b90815260200160405180910390206040518060e0016040529081600082018054611a8590613a9c565b80601f0160208091040260200160405190810160405280929190818152602001828054611ab190613a9c565b8015611afe5780601f10611ad357610100808354040283529160200191611afe565b820191906000526020600020905b815481529060010190602001808311611ae157829003601f168201915b50505091835250506001820154600160a060020a039081166020830152600283015416604082015260038201546060820152600482018054608090920191611b4590613a9c565b80601f0160208091040260200160405190810160405280929190818152602001828054611b7190613a9c565b8015611bbe5780601f10611b9357610100808354040283529160200191611bbe565b820191906000526020600020905b815481529060010190602001808311611ba157829003601f168201915b5050509183525050600582015460ff1615156020820152600682018054604090920191611bea90613a9c565b80601f0160208091040260200160405190810160405280929190818152602001828054611c1690613a9c565b8015611c635780601f10611c3857610100808354040283529160200191611c63565b820191906000526020600020905b815481529060010190602001808311611c4657829003601f168201915b5050505050815250509050806000015181602001518260400151836060015184608001518560a001518660c001519a509a509a509a509a509a509a5050505050919395979092949650565b60608133600160a060020a0382161480611ceb5750600160a060020a0381166000908152600a6020908152604080832033845290915290205460ff165b80611d0557503360009081526009602052604090205460ff165b611d245760405160e560020a62461bcd0281526004016106f590613a3f565b600160a060020a0383166000908152600f60209081526040918290208054835181840281018401909452808452909183018282801561076657602002820191906000526020600020905b815481526020019060010190808311611d6e575050505050915050919050565b606081600160a060020a038116611dba5760405160e560020a62461bcd0281526004016106f590613c06565b8233600160a060020a0382161480611df55750600160a060020a0381166000908152600a6020908152604080832033845290915290205460ff165b80611e0f57503360009081526009602052604090205460ff165b611e2e5760405160e560020a62461bcd0281526004016106f590613a3f565b600160a060020a038416600090815260076020908152604080832080548251818502810185019093528083529193909284015b82821015611f0d578382906000526020600020018054611e8090613a9c565b80601f0160208091040260200160405190810160405280929190818152602001828054611eac90613a9c565b8015611ef95780601f10611ece57610100808354040283529160200191611ef9565b820191906000526020600020905b815481529060010190602001808311611edc57829003601f168201915b505050505081526020019060010190611e61565b5050505092505050919050565b3360009081526005602052604090206003015460ff16611f4f5760405160e560020a62461bcd0281526004016106f590613db1565b82600160a060020a038116611f795760405160e560020a62461bcd0281526004016106f590613c06565b600160a060020a03841660009081526004602052604090206003015460ff16611fe75760405160e560020a62461bcd02815260206004820152601660248201527f50617469656e74206e6f7420726567697374657265640000000000000000000060448201526064016106f5565b600085511161203b5760405160e560020a62461bcd02815260206004820152601960248201527f4950465320686173682063616e6e6f7420626520656d7074790000000000000060448201526064016106f5565b60068560405161204b9190613bea565b908152604051908190036020019020805461206590613a9c565b1590506120b75760405160e560020a62461bcd02815260206004820152601760248201527f446f63756d656e7420616c72656164792065786973747300000000000000000060448201526064016106f5565b6040805160e081018252868152600160a060020a0386166020820152338183015242606082015260808101859052600160a082015260c081018490529051600690612103908890613bea565b908152604051908190036020019020815181906121209082613c8b565b506020820151600182018054600160a060020a0392831673ffffffffffffffffffffffffffffffffffffffff1991821617909155604084015160028401805491909316911617905560608201516003820155608082015160048201906121869082613c8b565b5060a082015160058201805460ff191691151591909117905560c082015160068201906121b39082613c8b565b505050600160a060020a0384166000908152600760209081526040822080546001810182559083529120016121e88682613c8b565b50336000908152600860209081526040822080546001810182559083529120016122128682613c8b565b50600160a060020a038416600090815260046020819052604082200180549161223a83613d6a565b909155505033600090815260056020526040812060040180549161225d83613d6a565b90915550506001805490600061227283613d6a565b919050555033600160a060020a031684600160a060020a0316866040516122999190613bea565b60405180910390207fe1ff7d56cc36ae922fe59a78c5615106db973de7c4bb91fa740560df9654558c866040516122d091906139bf565b60405180910390a45050505050565b3360009081526004602052604090206003015460ff166123145760405160e560020a62461bcd0281526004016106f590613ad3565b80600160a060020a03811661233e5760405160e560020a62461bcd0281526004016106f590613c06565b600160a060020a038216600081815260096020526040808220805460ff19169055513392917f5f708ef9fc37d19d88246c264788c8cdf640c9ff500bd168e941ea1421c4f6c491a35050565b6005602052600090815260409020805481906123a590613a9c565b80601f01602080910402602001604051908101604052809291908181526020018280546123d190613a9c565b801561241e5780601f106123f35761010080835404028352916020019161241e565b820191906000526020600020905b81548152906001019060200180831161240157829003601f168201915b50505050509080600101805461243390613a9c565b80601f016020809104026020016040519081016040528092919081815260200182805461245f90613a9c565b80156124ac5780601f10612481576101008083540402835291602001916124ac565b820191906000526020600020905b81548152906001019060200180831161248f57829003601f168201915b5050505050908060020180546124c190613a9c565b80601f01602080910402602001604051908101604052809291908181526020018280546124ed90613a9c565b801561253a5780601f1061250f5761010080835404028352916020019161253a565b820191906000526020600020905b81548152906001019060200180831161251d57829003601f168201915b505050506003830154600490930154919260ff1691905085565b3360009081526005602052604090206003015460ff166125895760405160e560020a62461bcd0281526004016106f590613db1565b81600160a060020a0381166125b35760405160e560020a62461bcd0281526004016106f590613c06565b600160a060020a03831660009081526004602052604090206003015460ff166126215760405160e560020a62461bcd02815260206004820152601660248201527f50617469656e74206e6f7420726567697374657265640000000000000000000060448201526064016106f5565b600160a060020a0383166000908152600a6020908152604080832033845290915290205460ff16156126985760405160e560020a62461bcd02815260206004820152601660248201527f41636365737320616c7265616479206772616e7465640000000000000000000060448201526064016106f5565b336000908152600b60209081526040808320600160a060020a038716845290915290205460ff161561270f5760405160e560020a62461bcd02815260206004820152601760248201527f5265717565737420616c72656164792070656e64696e6700000000000000000060448201526064016106f5565b6000338442856040516020016127289493929190613e0e565b60408051601f19818403018152828252805160209182012060a084018352338452600160a060020a038881168584019081528585018981524260608801526001608088018190526000858152600e909652959094208651815490841673ffffffffffffffffffffffffffffffffffffffff19918216178255915195810180549690931695909116949094179055905190935060028201906127c99082613c8b565b50606082015160038201556080909101516004909101805491151560ff19928316179055336000818152600b60209081526040808320600160a060020a038a1680855290835281842080549096166001908117909655600f8352818420805480880182559085528385200187905584845260108352818420805496870181558452919092209093018490555183907f87390b569bc6c830d3f30a3ca38a57bce4db4fa55b9d557855ce23471e3562e3906128849088906139bf565b60405180910390a450505050565b600160a060020a038082166000908152600a602090815260408083209386168352929052205460ff165b92915050565b80516020818301810180516006825292820191909301209152805481906128e890613a9c565b80601f016020809104026020016040519081016040528092919081815260200182805461291490613a9c565b80156129615780601f1061293657610100808354040283529160200191612961565b820191906000526020600020905b81548152906001019060200180831161294457829003601f168201915b505050506001830154600284015460038501546004860180549596600160a060020a0394851696949093169450909261299990613a9c565b80601f01602080910402602001604051908101604052809291908181526020018280546129c590613a9c565b8015612a125780601f106129e757610100808354040283529160200191612a12565b820191906000526020600020905b8154815290600101906020018083116129f557829003601f168201915b5050506005840154600685018054949560ff909216949193509150612a3690613a9c565b80601f0160208091040260200160405190810160405280929190818152602001828054612a6290613a9c565b8015612aaf5780601f10612a8457610100808354040283529160200191612aaf565b820191906000526020600020905b815481529060010190602001808311612a9257829003601f168201915b5050505050905087565b60076020528160005260406000208181548110612ad557600080fd5b90600052602060002001600091509150508054612af190613a9c565b80601f0160208091040260200160405190810160405280929190818152602001828054612b1d90613a9c565b8015612b6a5780601f10612b3f57610100808354040283529160200191612b6a565b820191906000526020600020905b815481529060010190602001808311612b4d57829003601f168201915b505050505081565b3360009081526004602052604090206003015460ff1615612bd85760405160e560020a62461bcd02815260206004820152601a60248201527f50617469656e7420616c7265616479207265676973746572656400000000000060448201526064016106f5565b6000835111612c2c5760405160e560020a62461bcd02815260206004820152601460248201527f4e616d652063616e6e6f7420626520656d70747900000000000000000000000060448201526064016106f5565b6000825111612c805760405160e560020a62461bcd02815260206004820152601560248201527f456d61696c2063616e6e6f7420626520656d707479000000000000000000000060448201526064016106f5565b6040805160a08101825284815260208082018590528183018490526001606083015260006080830181905233815260049091529190912081518190612cc59082613c8b565b5060208201516001820190612cda9082613c8b565b506040820151600282810191909155606083015160038301805460ff19169115159190911790556080909201516004909101558054906000612d1b83613d6a565b919050555033600160a060020a03167fc85b128388b9c331a2a5485dce4cd0f3db9f7c279d327ce95d6d39d6c94644c78460405161124a91906139bf565b3360009081526004602052604090206003015460ff16612d8e5760405160e560020a62461bcd0281526004016106f590613ad3565b80600160a060020a038116612db85760405160e560020a62461bcd0281526004016106f590613c06565b336000908152600a60209081526040808320600160a060020a038616845290915290205460ff16612e2e5760405160e560020a62461bcd02815260206004820152601a60248201527f446f63746f7220646f65736e277420686176652061636365737300000000000060448201526064016106f5565b600160a060020a03821660009081526005602052604090206003015460ff16612e9c5760405160e560020a62461bcd02815260206004820152601360248201527f446f63746f72206e6f742076657269666965640000000000000000000000000060448201526064016106f5565b336000818152600a60209081526040808320600160a060020a03871684528252808320805460ff19169055928252600c905220612ed99083613325565b600160a060020a0382166000908152600d60205260409020612efb9033613325565b6040513390600160a060020a038416907f825c8be24eb0df19500f63e86c29e7d0d951e73056b889b891d85e40938d9b6e90600090a36040513390600160a060020a038416907f5f708ef9fc37d19d88246c264788c8cdf640c9ff500bd168e941ea1421c4f6c490600090a35050565b6000818152600e60209081526040808320815160a0810183528154600160a060020a0390811682526001830154169381019390935260028101805485946060948694859485949192840191612fbf90613a9c565b80601f0160208091040260200160405190810160405280929190818152602001828054612feb90613a9c565b80156130385780601f1061300d57610100808354040283529160200191613038565b820191906000526020600020905b81548152906001019060200180831161301b57829003601f168201915b50505091835250506003820154602082015260049091015460ff1615156040909101528051909150600160a060020a031633148061308b57508060200151600160a060020a031633600160a060020a0316145b806130a557503360009081526009602052604090205460ff165b61311a5760405160e560020a62461bcd02815260206004820152603d60248201527f4163636573732064656e6965643a204f6e6c7920696e766f6c7665642070617260448201527f746965732063616e207669657720726571756573742064657461696c7300000060648201526084016106f5565b8051602082015160408301516060840151608090940151929a91995097509195509350915050565b606081600160a060020a03811661316e5760405160e560020a62461bcd0281526004016106f590613c06565b33600160a060020a038416148061319457503360009081526009602052604090205460ff165b806131a95750600054600160a060020a031633145b61321e5760405160e560020a62461bcd02815260206004820152602760248201527f4e6f7420617574686f72697a656420746f207669657720646f63746f7220646f60448201527f63756d656e74730000000000000000000000000000000000000000000000000060648201526084016106f5565b600160a060020a038316600090815260086020908152604080832080548251818502810185019093528083529193909284015b828210156132fd57838290600052602060002001805461327090613a9c565b80601f016020809104026020016040519081016040528092919081815260200182805461329c90613a9c565b80156132e95780601f106132be576101008083540402835291602001916132e9565b820191906000526020600020905b8154815290600101906020018083116132cc57829003601f168201915b505050505081526020019060010190613251565b50505050915050919050565b60086020528160005260406000208181548110612ad557600080fd5b60005b825481101561343b5781600160a060020a031683828154811061334d5761334d613e62565b600091825260209091200154600160a060020a031603613429578254839061337790600190613e7b565b8154811061338757613387613e62565b9060005260206000200160009054906101000a9004600160a060020a03168382815481106133b7576133b7613e62565b9060005260206000200160006101000a815481600160a060020a030219169083600160a060020a03160217905550828054806133f5576133f5613e8e565b6000828152602090208101600019908101805473ffffffffffffffffffffffffffffffffffffffff19169055019055505050565b8061343381613d6a565b915050613328565b505050565b8035600160a060020a038116811461345757600080fd5b919050565b6000806040838503121561346f57600080fd5b61347883613440565b946020939093013593505050565b60006020828403121561349857600080fd5b6134a182613440565b9392505050565b6020808252825182820181905260009190848201906040850190845b818110156134e9578351600160a060020a0316835292840192918401916001016134c4565b50909695505050505050565b60005b838110156135105781810151838201526020016134f8565b50506000910152565b600081518084526135318160208601602086016134f5565b601f01601f19169290920160200192915050565b60a08152600061355860a0830188613519565b828103602084015261356a8188613519565b60408401969096525050911515606083015260809091015292915050565b60006020828403121561359a57600080fd5b5035919050565b60e060020a634e487b7102600052604160045260246000fd5b600082601f8301126135cb57600080fd5b813567ffffffffffffffff808211156135e6576135e66135a1565b604051601f8301601f19908116603f0116810190828211818310171561360e5761360e6135a1565b8160405283815286602085880101111561362757600080fd5b836020870160208301376000602085830101528094505050505092915050565b60006020828403121561365957600080fd5b813567ffffffffffffffff81111561367057600080fd5b61367c848285016135ba565b949350505050565b6000600160a060020a03808816835280871660208401525060a060408301526136b060a0830186613519565b6060830194909452509015156080909101529392505050565b600080604083850312156136dc57600080fd5b6136e583613440565b91506136f360208401613440565b90509250929050565b60008060006060848603121561371157600080fd5b833567ffffffffffffffff8082111561372957600080fd5b613735878388016135ba565b9450602086013591508082111561374b57600080fd5b613757878388016135ba565b9350604086013591508082111561376d57600080fd5b5061377a868287016135ba565b9150509250925092565b6020808252825182820181905260009190848201906040850190845b818110156134e9578351835292840192918401916001016137a0565b60a0815260006137cf60a0830188613519565b82810360208401526137e18188613519565b905082810360408401526137f58187613519565b94151560608401525050608001529392505050565b60e08152600061381d60e083018a613519565b600160a060020a0389811660208501528816604084015260608301879052828103608084015261384d8187613519565b905084151560a084015282810360c08401526138698185613519565b9a9950505050505050505050565b600060208083018184528085518083526040860191506040848202870101925083870160005b828110156138cb57603f198886030184526138b9858351613519565b9450928501929085019060010161389d565b5092979650505050505050565b600080600080608085870312156138ee57600080fd5b843567ffffffffffffffff8082111561390657600080fd5b613912888389016135ba565b955061392060208801613440565b9450604087013591508082111561393657600080fd5b613942888389016135ba565b9350606087013591508082111561395857600080fd5b50613965878288016135ba565b91505092959194509250565b6000806040838503121561398457600080fd5b61398d83613440565b9150602083013567ffffffffffffffff8111156139a957600080fd5b6139b5858286016135ba565b9150509250929050565b6020815260006134a16020830184613519565b6000806000606084860312156139e757600080fd5b833567ffffffffffffffff808211156139ff57600080fd5b613a0b878388016135ba565b94506020860135915080821115613a2157600080fd5b50613a2e868287016135ba565b925050604084013590509250925092565b60208082526031908201527f4163636573732064656e6965643a204e6f207065726d697373696f6e20746f2060408201527f766965772070617469656e742064617461000000000000000000000000000000606082015260800190565b600281046001821680613ab057607f821691505b60208210810361076e5760e060020a634e487b7102600052602260045260246000fd5b60208082526026908201527f4f6e6c7920726567697374657265642070617469656e74732063616e2063616c60408201527f6c20746869730000000000000000000000000000000000000000000000000000606082015260800190565b60208082526026908201527f52657175657374206e6f7420666f756e64206f7220616c72656164792070726f60408201527f6365737365640000000000000000000000000000000000000000000000000000606082015260800190565b60208082526039908201527f4163636573732064656e6965643a204f6e6c7920646f63746f72206f7220617560408201527f74686f72697a656420616464726573732063616e207669657700000000000000606082015260800190565b60008251613bfc8184602087016134f5565b9190910192915050565b6020808252600f908201527f496e76616c696420616464726573730000000000000000000000000000000000604082015260600190565b601f82111561343b576000818152602081206020601f86010481016020861015613c645750805b6020601f860104820191505b81811015613c8357828155600101613c70565b505050505050565b815167ffffffffffffffff811115613ca557613ca56135a1565b613cb981613cb38454613a9c565b84613c3d565b602080601f831160018114613cf25760008415613cd65750858301515b60028086026008870290910a6000190419821617865550613c83565b600085815260208120601f198616915b82811015613d2157888601518255948401946001909101908401613d02565b5085821015613d4157878501516008601f88160260020a60001904191681555b5050505050600202600101905550565b60e060020a634e487b7102600052601160045260246000fd5b600060018201613d7c57613d7c613d51565b5060010190565b604081526000613d966040830185613519565b8281036020840152613da88185613519565b95945050505050565b60208082526023908201527f4f6e6c7920766572696669656420646f63746f72732063616e2063616c6c207460408201527f6869730000000000000000000000000000000000000000000000000000000000606082015260800190565b60006c01000000000000000000000000600160a060020a03818189160284528181881602601485015250508360288301528251613e528160488501602087016134f5565b9190910160480195945050505050565b60e060020a634e487b7102600052603260045260246000fd5b818103818111156128bc576128bc613d51565b60e060020a634e487b7102600052603160045260246000fdfea26469706673582212200552cfdb0faf15b2503b7a986ca1ccada6ed7ffe2a7fd955b74a20413c70674564736f6c63430008130033",
  "immutableReferences": {},
  "source": "// SPDX-License-Identifier: MIT\r\npragma solidity ^0.8.19;\r\n\r\n/**\r\n * @title MedicalRecords\r\n * @dev Smart contract for managing medical document records on blockchain\r\n * @author Vmedithon Team\r\n */\r\ncontract MedicalRecords {\r\n    \r\n    // Struct to store medical document information\r\n    struct MedicalDocument {\r\n        string ipfsHash;        // IPFS hash of the document\r\n        address patientAddress; // Patient's wallet address\r\n        address doctorAddress;  // Doctor's wallet address\r\n        uint256 timestamp;      // When the document was uploaded\r\n        string documentType;    // Type of medical document\r\n        bool isActive;          // Document status\r\n        string metadata;        // Additional metadata\r\n    }\r\n    \r\n    // Struct to store patient information\r\n    struct Patient {\r\n        string name;\r\n        string email;\r\n        uint256 dateOfBirth;\r\n        bool isRegistered;\r\n        uint256 documentCount;\r\n    }\r\n    \r\n    // Struct to store doctor information\r\n    struct Doctor {\r\n        string name;\r\n        string license;\r\n        string specialization;\r\n        bool isVerified;\r\n        uint256 documentCount;\r\n    }\r\n    \r\n    // State variables\r\n    address public owner;\r\n    uint256 public totalDocuments;\r\n    uint256 public totalPatients;\r\n    uint256 public totalDoctors;\r\n    \r\n    // Mappings\r\n    mapping(address => Patient) public patients;\r\n    mapping(address => Doctor) public doctors;\r\n    mapping(string => MedicalDocument) public documents; // ipfsHash => MedicalDocument\r\n    mapping(address => string[]) public patientDocuments; // patient => ipfsHashes\r\n    mapping(address => string[]) public doctorDocuments; // doctor => ipfsHashes\r\n    \r\n    // Enhanced Access Control Mappings\r\n    mapping(address => bool) public authorizedAddresses; // Keep for backward compatibility\r\n    mapping(address => mapping(address => bool)) public patientDoctorAccess; // patient => doctor => hasAccess\r\n    mapping(address => mapping(address => bool)) public doctorAccessRequests; // doctor => patient => hasPendingRequest\r\n    mapping(address => address[]) public patientAuthorizedDoctors; // patient => array of authorized doctors\r\n    mapping(address => address[]) public doctorAccessiblePatients; // doctor => array of accessible patients\r\n    \r\n    // Access Request Tracking\r\n    struct AccessRequest {\r\n        address doctor;\r\n        address patient;\r\n        string reason;\r\n        uint256 requestTime;\r\n        bool isPending;\r\n    }\r\n    \r\n    mapping(bytes32 => AccessRequest) public accessRequests; // requestId => AccessRequest\r\n    mapping(address => bytes32[]) public patientPendingRequests; // patient => requestIds[]\r\n    mapping(address => bytes32[]) public doctorSentRequests; // doctor => requestIds[]\r\n    \r\n    // Events\r\n    event PatientRegistered(address indexed patient, string name);\r\n    event DoctorRegistered(address indexed doctor, string name, string license);\r\n    event DocumentUploaded(\r\n        string indexed ipfsHash,\r\n        address indexed patient,\r\n        address indexed doctor,\r\n        string documentType\r\n    );\r\n    event DocumentAccessed(string indexed ipfsHash, address indexed accessor);\r\n    event PermissionGranted(address indexed grantee, address indexed grantor);\r\n    event PermissionRevoked(address indexed revokee, address indexed revoker);\r\n    \r\n    // Enhanced Access Control Events\r\n    event AccessRequested(\r\n        bytes32 indexed requestId,\r\n        address indexed doctor,\r\n        address indexed patient,\r\n        string reason\r\n    );\r\n    event AccessApproved(\r\n        bytes32 indexed requestId,\r\n        address indexed doctor,\r\n        address indexed patient\r\n    );\r\n    event AccessDenied(\r\n        bytes32 indexed requestId,\r\n        address indexed doctor,\r\n        address indexed patient\r\n    );\r\n    event AccessRevoked(\r\n        address indexed doctor,\r\n        address indexed patient\r\n    );\r\n    \r\n    // Modifiers\r\n    modifier onlyOwner() {\r\n        require(msg.sender == owner, \"Only owner can call this function\");\r\n        _;\r\n    }\r\n    \r\n    modifier onlyPatient() {\r\n        require(patients[msg.sender].isRegistered, \"Only registered patients can call this\");\r\n        _;\r\n    }\r\n    \r\n    modifier onlyDoctor() {\r\n        require(doctors[msg.sender].isVerified, \"Only verified doctors can call this\");\r\n        _;\r\n    }\r\n    \r\n    // Enhanced Access Control Modifiers\r\n    modifier hasPatientAccess(address _patient) {\r\n        require(\r\n            msg.sender == _patient || // Patient themselves\r\n            patientDoctorAccess[_patient][msg.sender] || // Authorized doctor\r\n            authorizedAddresses[msg.sender], // Legacy authorized address\r\n            \"Access denied: No permission to view patient data\"\r\n        );\r\n        _;\r\n    }\r\n    \r\n    modifier canAccessDocument(string memory _ipfsHash) {\r\n        MedicalDocument storage doc = documents[_ipfsHash];\r\n        require(\r\n            msg.sender == doc.patientAddress || // Patient themselves\r\n            (doctors[msg.sender].isVerified && patientDoctorAccess[doc.patientAddress][msg.sender]) || // Authorized doctor\r\n            msg.sender == doc.doctorAddress || // Document creator (original doctor)\r\n            authorizedAddresses[msg.sender], // Legacy authorized address\r\n            \"Access denied: No permission to view this document\"\r\n        );\r\n        _;\r\n    }\r\n    \r\n    modifier onlyAuthorized() {\r\n        require(\r\n            authorizedAddresses[msg.sender] || \r\n            patients[msg.sender].isRegistered || \r\n            doctors[msg.sender].isVerified || \r\n            msg.sender == owner,\r\n            \"Not authorized to access this function\"\r\n        );\r\n        _;\r\n    }\r\n    \r\n    modifier validAddress(address _addr) {\r\n        require(_addr != address(0), \"Invalid address\");\r\n        _;\r\n    }\r\n    \r\n    modifier documentExists(string memory _ipfsHash) {\r\n        require(bytes(documents[_ipfsHash].ipfsHash).length > 0, \"Document does not exist\");\r\n        _;\r\n    }\r\n    \r\n    constructor() {\r\n        owner = msg.sender;\r\n        totalDocuments = 0;\r\n        totalPatients = 0;\r\n        totalDoctors = 0;\r\n    }\r\n    \r\n    /**\r\n     * @dev Register a new patient\r\n     * @param _name Patient's name\r\n     * @param _email Patient's email\r\n     * @param _dateOfBirth Patient's date of birth (timestamp)\r\n     */\r\n    function registerPatient(\r\n        string memory _name,\r\n        string memory _email,\r\n        uint256 _dateOfBirth\r\n    ) external {\r\n        require(!patients[msg.sender].isRegistered, \"Patient already registered\");\r\n        require(bytes(_name).length > 0, \"Name cannot be empty\");\r\n        require(bytes(_email).length > 0, \"Email cannot be empty\");\r\n        \r\n        patients[msg.sender] = Patient({\r\n            name: _name,\r\n            email: _email,\r\n            dateOfBirth: _dateOfBirth,\r\n            isRegistered: true,\r\n            documentCount: 0\r\n        });\r\n        \r\n        totalPatients++;\r\n        emit PatientRegistered(msg.sender, _name);\r\n    }\r\n    \r\n    /**\r\n     * @dev Register a new doctor\r\n     * @param _name Doctor's name\r\n     * @param _license Doctor's license number\r\n     * @param _specialization Doctor's specialization\r\n     */\r\n    function registerDoctor(\r\n        string memory _name,\r\n        string memory _license,\r\n        string memory _specialization\r\n    ) external {\r\n        require(!doctors[msg.sender].isVerified, \"Doctor already registered\");\r\n        require(bytes(_name).length > 0, \"Name cannot be empty\");\r\n        require(bytes(_license).length > 0, \"License cannot be empty\");\r\n        \r\n        doctors[msg.sender] = Doctor({\r\n            name: _name,\r\n            license: _license,\r\n            specialization: _specialization,\r\n            isVerified: true,\r\n            documentCount: 0\r\n        });\r\n        \r\n        totalDoctors++;\r\n        emit DoctorRegistered(msg.sender, _name, _license);\r\n    }\r\n    \r\n    /**\r\n     * @dev Upload a medical document\r\n     * @param _ipfsHash IPFS hash of the document\r\n     * @param _patientAddress Patient's address\r\n     * @param _documentType Type of medical document\r\n     * @param _metadata Additional metadata\r\n     */\r\n    function uploadDocument(\r\n        string memory _ipfsHash,\r\n        address _patientAddress,\r\n        string memory _documentType,\r\n        string memory _metadata\r\n    ) external onlyDoctor validAddress(_patientAddress) {\r\n        require(patients[_patientAddress].isRegistered, \"Patient not registered\");\r\n        require(bytes(_ipfsHash).length > 0, \"IPFS hash cannot be empty\");\r\n        require(bytes(documents[_ipfsHash].ipfsHash).length == 0, \"Document already exists\");\r\n        \r\n        documents[_ipfsHash] = MedicalDocument({\r\n            ipfsHash: _ipfsHash,\r\n            patientAddress: _patientAddress,\r\n            doctorAddress: msg.sender,\r\n            timestamp: block.timestamp,\r\n            documentType: _documentType,\r\n            isActive: true,\r\n            metadata: _metadata\r\n        });\r\n        \r\n        patientDocuments[_patientAddress].push(_ipfsHash);\r\n        doctorDocuments[msg.sender].push(_ipfsHash);\r\n        \r\n        patients[_patientAddress].documentCount++;\r\n        doctors[msg.sender].documentCount++;\r\n        totalDocuments++;\r\n        \r\n        emit DocumentUploaded(_ipfsHash, _patientAddress, msg.sender, _documentType);\r\n    }\r\n    \r\n    /**\r\n     * @dev Get document details by IPFS hash\r\n     * @param _ipfsHash IPFS hash of the document\r\n     */\r\n    function getDocument(string memory _ipfsHash) \r\n        external \r\n        view \r\n        documentExists(_ipfsHash) \r\n        canAccessDocument(_ipfsHash)\r\n        returns (\r\n            string memory ipfsHash,\r\n            address patientAddress,\r\n            address doctorAddress,\r\n            uint256 timestamp,\r\n            string memory documentType,\r\n            bool isActive,\r\n            string memory metadata\r\n        ) \r\n    {\r\n        MedicalDocument memory doc = documents[_ipfsHash];\r\n        \r\n        return (\r\n            doc.ipfsHash,\r\n            doc.patientAddress,\r\n            doc.doctorAddress,\r\n            doc.timestamp,\r\n            doc.documentType,\r\n            doc.isActive,\r\n            doc.metadata\r\n        );\r\n    }\r\n    \r\n    /**\r\n     * @dev Get all document hashes for a patient\r\n     * @param _patientAddress Patient's address\r\n     */\r\n    function getPatientDocuments(address _patientAddress) \r\n        external \r\n        view \r\n        validAddress(_patientAddress)\r\n        hasPatientAccess(_patientAddress)\r\n        returns (string[] memory) \r\n    {\r\n        return patientDocuments[_patientAddress];\r\n    }\r\n    \r\n    /**\r\n     * @dev Get all document hashes uploaded by a doctor\r\n     * @param _doctorAddress Doctor's address\r\n     */\r\n    function getDoctorDocuments(address _doctorAddress) \r\n        external \r\n        view \r\n        validAddress(_doctorAddress)\r\n        returns (string[] memory) \r\n    {\r\n        require(\r\n            msg.sender == _doctorAddress || \r\n            authorizedAddresses[msg.sender] || \r\n            msg.sender == owner,\r\n            \"Not authorized to view doctor documents\"\r\n        );\r\n        \r\n        return doctorDocuments[_doctorAddress];\r\n    }\r\n    \r\n    /**\r\n     * @dev Grant access permission to another address\r\n     * @param _grantee Address to grant permission to\r\n     */\r\n    function grantPermission(address _grantee) external onlyPatient validAddress(_grantee) {\r\n        authorizedAddresses[_grantee] = true;\r\n        emit PermissionGranted(_grantee, msg.sender);\r\n    }\r\n    \r\n    /**\r\n     * @dev Revoke access permission from an address\r\n     * @param _revokee Address to revoke permission from\r\n     */\r\n    function revokePermission(address _revokee) external onlyPatient validAddress(_revokee) {\r\n        authorizedAddresses[_revokee] = false;\r\n        emit PermissionRevoked(_revokee, msg.sender);\r\n    }\r\n    \r\n    /**\r\n     * @dev Deactivate a document\r\n     * @param _ipfsHash IPFS hash of the document to deactivate\r\n     */\r\n    function deactivateDocument(string memory _ipfsHash) \r\n        external \r\n        documentExists(_ipfsHash) \r\n    {\r\n        MedicalDocument storage doc = documents[_ipfsHash];\r\n        require(\r\n            msg.sender == doc.patientAddress || \r\n            msg.sender == doc.doctorAddress || \r\n            msg.sender == owner,\r\n            \"Not authorized to deactivate this document\"\r\n        );\r\n        \r\n        doc.isActive = false;\r\n    }\r\n    \r\n    /**\r\n     * @dev Get patient information\r\n     * @param _patientAddress Patient's address\r\n     */\r\n    function getPatientInfo(address _patientAddress) \r\n        external \r\n        view \r\n        validAddress(_patientAddress)\r\n        returns (\r\n            string memory name,\r\n            string memory email,\r\n            uint256 dateOfBirth,\r\n            bool isRegistered,\r\n            uint256 documentCount\r\n        ) \r\n    {\r\n        require(\r\n            msg.sender == _patientAddress || \r\n            authorizedAddresses[msg.sender] || \r\n            msg.sender == owner,\r\n            \"Not authorized to view patient info\"\r\n        );\r\n        \r\n        Patient memory patient = patients[_patientAddress];\r\n        return (\r\n            patient.name,\r\n            patient.email,\r\n            patient.dateOfBirth,\r\n            patient.isRegistered,\r\n            patient.documentCount\r\n        );\r\n    }\r\n    \r\n    /**\r\n     * @dev Get doctor information\r\n     * @param _doctorAddress Doctor's address\r\n     */\r\n    function getDoctorInfo(address _doctorAddress) \r\n        external \r\n        view \r\n        validAddress(_doctorAddress)\r\n        returns (\r\n            string memory name,\r\n            string memory license,\r\n            string memory specialization,\r\n            bool isVerified,\r\n            uint256 documentCount\r\n        ) \r\n    {\r\n        Doctor memory doctor = doctors[_doctorAddress];\r\n        return (\r\n            doctor.name,\r\n            doctor.license,\r\n            doctor.specialization,\r\n            doctor.isVerified,\r\n            doctor.documentCount\r\n        );\r\n    }\r\n    \r\n    /**\r\n     * @dev Get contract statistics\r\n     */\r\n    function getContractStats() \r\n        external \r\n        view \r\n        returns (\r\n            uint256 _totalDocuments,\r\n            uint256 _totalPatients,\r\n            uint256 _totalDoctors\r\n        ) \r\n    {\r\n        return (totalDocuments, totalPatients, totalDoctors);\r\n    }\r\n    \r\n    // ============================================\r\n    // ENHANCED ACCESS CONTROL FUNCTIONS\r\n    // ============================================\r\n    \r\n    /**\r\n     * @dev Doctor requests access to patient's medical records\r\n     * @param _patient Patient's address\r\n     * @param _reason Reason for requesting access\r\n     */\r\n    function requestPatientAccess(address _patient, string memory _reason) \r\n        external \r\n        onlyDoctor \r\n        validAddress(_patient) \r\n    {\r\n        require(patients[_patient].isRegistered, \"Patient not registered\");\r\n        require(!patientDoctorAccess[_patient][msg.sender], \"Access already granted\");\r\n        require(!doctorAccessRequests[msg.sender][_patient], \"Request already pending\");\r\n        \r\n        // Generate unique request ID\r\n        bytes32 requestId = keccak256(\r\n            abi.encodePacked(msg.sender, _patient, block.timestamp, _reason)\r\n        );\r\n        \r\n        // Create access request\r\n        accessRequests[requestId] = AccessRequest({\r\n            doctor: msg.sender,\r\n            patient: _patient,\r\n            reason: _reason,\r\n            requestTime: block.timestamp,\r\n            isPending: true\r\n        });\r\n        \r\n        // Track the request\r\n        doctorAccessRequests[msg.sender][_patient] = true;\r\n        patientPendingRequests[_patient].push(requestId);\r\n        doctorSentRequests[msg.sender].push(requestId);\r\n        \r\n        emit AccessRequested(requestId, msg.sender, _patient, _reason);\r\n    }\r\n    \r\n    /**\r\n     * @dev Patient approves doctor's access request\r\n     * @param _requestId Request ID to approve\r\n     */\r\n    function approveAccessRequest(bytes32 _requestId) \r\n        external \r\n        onlyPatient \r\n    {\r\n        AccessRequest storage request = accessRequests[_requestId];\r\n        require(request.isPending, \"Request not found or already processed\");\r\n        require(request.patient == msg.sender, \"Only patient can approve their own requests\");\r\n        require(doctors[request.doctor].isVerified, \"Doctor not verified\");\r\n        \r\n        // Grant access\r\n        patientDoctorAccess[msg.sender][request.doctor] = true;\r\n        doctorAccessRequests[request.doctor][msg.sender] = false;\r\n        request.isPending = false;\r\n        \r\n        // Add to tracking arrays\r\n        patientAuthorizedDoctors[msg.sender].push(request.doctor);\r\n        doctorAccessiblePatients[request.doctor].push(msg.sender);\r\n        \r\n        emit AccessApproved(_requestId, request.doctor, msg.sender);\r\n        emit PermissionGranted(request.doctor, msg.sender);\r\n    }\r\n    \r\n    /**\r\n     * @dev Patient denies doctor's access request\r\n     * @param _requestId Request ID to deny\r\n     */\r\n    function denyAccessRequest(bytes32 _requestId) \r\n        external \r\n        onlyPatient \r\n    {\r\n        AccessRequest storage request = accessRequests[_requestId];\r\n        require(request.isPending, \"Request not found or already processed\");\r\n        require(request.patient == msg.sender, \"Only patient can deny their own requests\");\r\n        \r\n        // Deny access\r\n        doctorAccessRequests[request.doctor][msg.sender] = false;\r\n        request.isPending = false;\r\n        \r\n        emit AccessDenied(_requestId, request.doctor, msg.sender);\r\n    }\r\n    \r\n    /**\r\n     * @dev Patient revokes previously granted access to a doctor\r\n     * @param _doctor Doctor's address to revoke access from\r\n     */\r\n    function revokePatientAccess(address _doctor) \r\n        external \r\n        onlyPatient \r\n        validAddress(_doctor) \r\n    {\r\n        require(patientDoctorAccess[msg.sender][_doctor], \"Doctor doesn't have access\");\r\n        require(doctors[_doctor].isVerified, \"Doctor not verified\");\r\n        \r\n        // Revoke access\r\n        patientDoctorAccess[msg.sender][_doctor] = false;\r\n        \r\n        // Remove from tracking arrays\r\n        _removeFromArray(patientAuthorizedDoctors[msg.sender], _doctor);\r\n        _removeFromArray(doctorAccessiblePatients[_doctor], msg.sender);\r\n        \r\n        emit AccessRevoked(_doctor, msg.sender);\r\n        emit PermissionRevoked(_doctor, msg.sender);\r\n    }\r\n    \r\n    /**\r\n     * @dev Check if doctor has access to patient's records\r\n     * @param _doctor Doctor's address\r\n     * @param _patient Patient's address\r\n     * @return bool Access status\r\n     */\r\n    function checkDoctorAccess(address _doctor, address _patient) \r\n        external \r\n        view \r\n        returns (bool) \r\n    {\r\n        return patientDoctorAccess[_patient][_doctor];\r\n    }\r\n    \r\n    /**\r\n     * @dev Get patient's authorized doctors\r\n     * @param _patient Patient's address\r\n     * @return address[] Array of authorized doctor addresses\r\n     */\r\n    function getPatientAuthorizedDoctors(address _patient) \r\n        external \r\n        view \r\n        hasPatientAccess(_patient)\r\n        returns (address[] memory) \r\n    {\r\n        return patientAuthorizedDoctors[_patient];\r\n    }\r\n    \r\n    /**\r\n     * @dev Get doctor's accessible patients\r\n     * @param _doctor Doctor's address\r\n     * @return address[] Array of accessible patient addresses\r\n     */\r\n    function getDoctorAccessiblePatients(address _doctor) \r\n        external \r\n        view \r\n        returns (address[] memory) \r\n    {\r\n        require(\r\n            msg.sender == _doctor || authorizedAddresses[msg.sender],\r\n            \"Access denied: Only doctor or authorized address can view\"\r\n        );\r\n        return doctorAccessiblePatients[_doctor];\r\n    }\r\n    \r\n    /**\r\n     * @dev Get patient's pending access requests\r\n     * @param _patient Patient's address\r\n     * @return bytes32[] Array of pending request IDs\r\n     */\r\n    function getPatientPendingRequests(address _patient) \r\n        external \r\n        view \r\n        hasPatientAccess(_patient)\r\n        returns (bytes32[] memory) \r\n    {\r\n        return patientPendingRequests[_patient];\r\n    }\r\n    \r\n    /**\r\n     * @dev Get doctor's sent requests\r\n     * @param _doctor Doctor's address\r\n     * @return bytes32[] Array of sent request IDs\r\n     */\r\n    function getDoctorSentRequests(address _doctor) \r\n        external \r\n        view \r\n        returns (bytes32[] memory) \r\n    {\r\n        require(\r\n            msg.sender == _doctor || authorizedAddresses[msg.sender],\r\n            \"Access denied: Only doctor or authorized address can view\"\r\n        );\r\n        return doctorSentRequests[_doctor];\r\n    }\r\n    \r\n    /**\r\n     * @dev Get access request details\r\n     * @param _requestId Request ID\r\n     * @return doctor The doctor's address\r\n     * @return patient The patient's address  \r\n     * @return reason The reason for access request\r\n     * @return requestTime The timestamp of request\r\n     * @return isPending Whether request is still pending\r\n     */\r\n    function getAccessRequest(bytes32 _requestId) \r\n        external \r\n        view \r\n        returns (\r\n            address doctor,\r\n            address patient,\r\n            string memory reason,\r\n            uint256 requestTime,\r\n            bool isPending\r\n        ) \r\n    {\r\n        AccessRequest memory request = accessRequests[_requestId];\r\n        require(\r\n            msg.sender == request.doctor || \r\n            msg.sender == request.patient || \r\n            authorizedAddresses[msg.sender],\r\n            \"Access denied: Only involved parties can view request details\"\r\n        );\r\n        \r\n        return (\r\n            request.doctor,\r\n            request.patient,\r\n            request.reason,\r\n            request.requestTime,\r\n            request.isPending\r\n        );\r\n    }\r\n    \r\n    /**\r\n     * @dev Internal function to remove address from array\r\n     * @param _array Array to modify\r\n     * @param _addr Address to remove\r\n     */\r\n    function _removeFromArray(address[] storage _array, address _addr) internal {\r\n        for (uint i = 0; i < _array.length; i++) {\r\n            if (_array[i] == _addr) {\r\n                _array[i] = _array[_array.length - 1];\r\n                _array.pop();\r\n                break;\r\n            }\r\n        }\r\n    }\r\n    \r\n    /**\r\n     * @dev Emergency function to pause contract (only owner)\r\n     */\r\n    function emergencyStop() external onlyOwner {\r\n        // Implementation for emergency stop if needed\r\n        // This is a placeholder for emergency functionality\r\n    }\r\n}\r\n",
  "sourcePath": "C:\\Users\\ADMIN\\Desktop\\Vmedithon\\backend\\blockchain\\contracts\\MedicalRecords.sol",
  "compiler": {
    "name": "solc",
    "version": "0.8.19+commit.7dd6d404.Emscripten.clang"
  },
  "schemaVersion": "3.4.16",
  "updatedAt": "2025-09-02T20:51:30.041Z",
  "devdoc": {
    "author": "Vmedithon Team",
    "details": "Smart contract for managing medical document records on blockchain",
    "kind": "dev",
    "methods": {
      "approveAccessRequest(bytes32)": {
        "details": "Patient approves doctor's access request",
        "params": {
          "_requestId": "Request ID to approve"
        }
      },
      "checkDoctorAccess(address,address)": {
        "details": "Check if doctor has access to patient's records",
        "params": {
          "_doctor": "Doctor's address",
          "_patient": "Patient's address"
        },
        "returns": {
          "_0": "bool Access status"
        }
      },
      "deactivateDocument(string)": {
        "details": "Deactivate a document",
        "params": {
          "_ipfsHash": "IPFS hash of the document to deactivate"
        }
      },
      "denyAccessRequest(bytes32)": {
        "details": "Patient denies doctor's access request",
        "params": {
          "_requestId": "Request ID to deny"
        }
      },
      "emergencyStop()": {
        "details": "Emergency function to pause contract (only owner)"
      },
      "getAccessRequest(bytes32)": {
        "details": "Get access request details",
        "params": {
          "_requestId": "Request ID"
        },
        "returns": {
          "doctor": "The doctor's address",
          "isPending": "Whether request is still pending",
          "patient": "The patient's address  ",
          "reason": "The reason for access request",
          "requestTime": "The timestamp of request"
        }
      },
      "getContractStats()": {
        "details": "Get contract statistics"
      },
      "getDoctorAccessiblePatients(address)": {
        "details": "Get doctor's accessible patients",
        "params": {
          "_doctor": "Doctor's address"
        },
        "returns": {
          "_0": "address[] Array of accessible patient addresses"
        }
      },
      "getDoctorDocuments(address)": {
        "details": "Get all document hashes uploaded by a doctor",
        "params": {
          "_doctorAddress": "Doctor's address"
        }
      },
      "getDoctorInfo(address)": {
        "details": "Get doctor information",
        "params": {
          "_doctorAddress": "Doctor's address"
        }
      },
      "getDoctorSentRequests(address)": {
        "details": "Get doctor's sent requests",
        "params": {
          "_doctor": "Doctor's address"
        },
        "returns": {
          "_0": "bytes32[] Array of sent request IDs"
        }
      },
      "getDocument(string)": {
        "details": "Get document details by IPFS hash",
        "params": {
          "_ipfsHash": "IPFS hash of the document"
        }
      },
      "getPatientAuthorizedDoctors(address)": {
        "details": "Get patient's authorized doctors",
        "params": {
          "_patient": "Patient's address"
        },
        "returns": {
          "_0": "address[] Array of authorized doctor addresses"
        }
      },
      "getPatientDocuments(address)": {
        "details": "Get all document hashes for a patient",
        "params": {
          "_patientAddress": "Patient's address"
        }
      },
      "getPatientInfo(address)": {
        "details": "Get patient information",
        "params": {
          "_patientAddress": "Patient's address"
        }
      },
      "getPatientPendingRequests(address)": {
        "details": "Get patient's pending access requests",
        "params": {
          "_patient": "Patient's address"
        },
        "returns": {
          "_0": "bytes32[] Array of pending request IDs"
        }
      },
      "grantPermission(address)": {
        "details": "Grant access permission to another address",
        "params": {
          "_grantee": "Address to grant permission to"
        }
      },
      "registerDoctor(string,string,string)": {
        "details": "Register a new doctor",
        "params": {
          "_license": "Doctor's license number",
          "_name": "Doctor's name",
          "_specialization": "Doctor's specialization"
        }
      },
      "registerPatient(string,string,uint256)": {
        "details": "Register a new patient",
        "params": {
          "_dateOfBirth": "Patient's date of birth (timestamp)",
          "_email": "Patient's email",
          "_name": "Patient's name"
        }
      },
      "requestPatientAccess(address,string)": {
        "details": "Doctor requests access to patient's medical records",
        "params": {
          "_patient": "Patient's address",
          "_reason": "Reason for requesting access"
        }
      },
      "revokePatientAccess(address)": {
        "details": "Patient revokes previously granted access to a doctor",
        "params": {
          "_doctor": "Doctor's address to revoke access from"
        }
      },
      "revokePermission(address)": {
        "details": "Revoke access permission from an address",
        "params": {
          "_revokee": "Address to revoke permission from"
        }
      },
      "uploadDocument(string,address,string,string)": {
        "details": "Upload a medical document",
        "params": {
          "_documentType": "Type of medical document",
          "_ipfsHash": "IPFS hash of the document",
          "_metadata": "Additional metadata",
          "_patientAddress": "Patient's address"
        }
      }
    },
    "title": "MedicalRecords",
    "version": 1
  },
  "userdoc": {
    "kind": "user",
    "methods": {},
    "version": 1
  }
}